:100000000C94BC020C94D9020C94D9020C94D90221
:100010000C94D9020C94D9020C94D9020C94D902F4
:100020000C94D9020C94D9020C94D9020C940913A3
:100030000C94D9020C94D9020C94D9020C94D902D4
:100040000C94D9020C94D9020C94E5120C94D902A8
:100050000C94D9020C94D9020C94D9020C94D902B4
:100060000C94D9020C94D9020C94D9020C94D902A4
:100070000C94D9020C94D9020C94D902000000000F
:10008000003E5B4F5B3E3E6B4F6B3E1C3E7C3E1C1E
:10009000183C7E3C181C577D571C1C5E7F5E1C0064
:1000A000183C1800FFE7C3E7FF0018241800FFE71B
:1000B000DBE7FF30483A060E2629792926407F05DE
:1000C0000507407F05253F5A3CE73C5A7F3E1C1CF4
:1000D00008081C1C3E7F14227F22145F5F005F5FB4
:1000E00006097F017F006689956A606060606094A0
:1000F000A2FFA29408047E040810207E20100808A5
:100100002A1C08081C2A08081E101010100C1E0CAF
:100110001E0C30383E3830060E3E0E060000000041
:100120000000005F00000007000700147F147F1428
:10013000242A7F2A1223130864623649562050006D
:1001400008070300001C2241000041221C002A1C59
:100150007F1C2A08083E0808008070300008080844
:100160000808000060600020100804023E51494564
:100170003E00427F400072494949462141494D3382
:100180001814127F1027454545393C4A49493141E9
:10019000211109073649494936464949291E0000B7
:1001A000140000004034000000081422411414140C
:1001B0001414004122140802015909063E415D59F8
:1001C0004E7C1211127C7F494949363E4141412201
:1001D0007F4141413E7F494949417F090909013E2B
:1001E000414151737F0808087F00417F4100204052
:1001F000413F017F081422417F404040407F021C64
:10020000027F7F0408107F3E4141413E7F0909097A
:10021000063E4151215E7F09192946264949493246
:1002200003017F01033F4040403F1F2040201F3F0C
:100230004038403F63140814630304780403615991
:10024000494D43007F4141410204081020004141D3
:10025000417F04020102044040404040000307087F
:100260000020545478407F2844443838444444287B
:10027000384444287F385454541800087E09021822
:10028000A4A49C787F0804047800447D40002040AA
:10029000403D007F1028440000417F40007C0478EE
:1002A00004787C080404783844444438FC18242436
:1002B0001818242418FC7C080404084854545424B6
:1002C00004043F44243C4040207C1C2040201C3C33
:1002D0004030403C44281028444C9090907C44642A
:1002E000544C4400083641000000770000004136BD
:1002F000080002010204023C2623263C1EA1A16143
:10030000123A4040207A3854545559215555794174
:100310002254547842215554784020545579400C49
:100320001E5272123955555559395454545939552C
:100330005454580000457C410002457D420001456F
:100340007C407D1211127DF0282528F07C54554503
:10035000002054547C547C0A097F4932494949326F
:100360003A4444443A324A4848303A4141217A3A80
:1003700042402078009DA0A07D3D4242423D3D404C
:1003800040403D3C24FF2424487E4943662B2FFCFB
:100390002F2BFF0929F620C0887E090320545479A9
:1003A000410000447D413048484A32384040227A7A
:1003B000007A0A0A727D0D19317D2629292F2826F7
:1003C0002929292630484D402038080808080808FF
:1003D0000808382F10C8ACBA2F102834FA00007B58
:1003E000000008142A142222142A1408AA00550016
:1003F000AAAA55AA55AA000000FF00101010FF007D
:10040000141414FF001010FF00FF1010F010F0146F
:100410001414FC001414F700FF0000FF00FF141474
:10042000F404FC141417101F10101F101F141414C0
:100430001F00101010F0000000001F101010101FFF
:1004400010101010F010000000FF1010101010100D
:10045000101010FF10000000FF140000FF00FF004C
:10046000001F10170000FC04F414141710171414C4
:10047000F404F40000FF00F714141414141414F717
:1004800000F7141414171410101F101F141414F470
:10049000141010F010F000001F101F0000001F14B7
:1004A000000000FC140000F010F01010FF10FF140A
:1004B0001414FF141010101F00000000F010FFFFB4
:1004C000FFFFFFF0F0F0F0F0FFFFFF000000000082
:1004D000FFFF0F0F0F0F0F3844443844FC4A4A4ABD
:1004E000347E02020606027E027E026355494163A3
:1004F0003844443C04407E201E2006027E020299BD
:10050000A5E7A5991C2A492A1C4C7201724C304A55
:100510004D4D303048784830BC625A463D3E4949DE
:1005200049007E0101017E2A2A2A2A2A44445F4486
:100530004440514A444040444A51400000FF0103B6
:10054000E080FF000008086B6B0836123624360680
:100550000F090F06000018180000001010003040AE
:10056000FF0101001F01011E00191D1712003C3C74
:100570003C3C00000000000011241FBECFEFD8E07B
:10058000DEBFCDBF11E0A0E0B1E0E6E6F3E302C0DC
:1005900005900D92A634B107D9F721E0A6E4B1E0A9
:1005A00001C01D92A53DB207E1F70E9403150C940E
:1005B000B1190C94000080E480937C0085E880935E
:1005C0007A00089590917C00907E892B80937C0026
:1005D00080917A00806480937A0080917A0086FD11
:1005E000FCCF80917800909179000895FC0180E023
:1005F00090E0A0E2B3E480839183A283B38380E0A0
:1006000090E0A0EFB2E484839583A683B783108A39
:10061000118A128A138A148A158A168A178A80E028
:1006200090E0A0E0B1E4808F918FA28FB38F8DEC2A
:100630009CECACECBDE3848F958FA68FB78F80E0E8
:1006400090E0A0E8BFE380A391A3A2A3B3A3089581
:100650004F925F926F927F928F929F92AF92BF92D2
:10066000CF92DF92EF92FF92CF93DF93CDB7DEB7B9
:1006700062970FB6F894DEBF0FBECDBF9A8B898B01
:10068000DC015096CD90DD90ED90FC905397D70112
:10069000C601BF7789839A83AB83BC832FE632E19F
:1006A00043E85AE3BC01CD010E94D01818160CF0A3
:1006B000A0C0A989BA8954964D905D906D907C90A8
:1006C0005797D301C201BF778D839E83AF83B887CD
:1006D0002FE632E143E85AE3BC01CD010E94D01875
:1006E00018160CF086C0A7019601C701B6010E943A
:1006F000D5184B015C01A3019201C301B2010E9414
:10070000D5189B01AC01C501B4010E940C170E94D1
:1007100048194B015C01A989BA895C968D919D911C
:100720000D90BC91A02D89879A87AB87BC87A501C6
:100730009401C701B6010E947D1729853A854B8532
:100740005C850E94D5186D877E878F87988BA50161
:100750009401C301B2010E947D1729853A854B851A
:100760005C850E94D5184B015C012D853E854F8527
:1007700058895F7769817A818B819C810E94781783
:1007800087FF07C0E989FA89108A118A128A138AB9
:1007900010C02D853E854F855889C701B6010E943E
:1007A0000B17A989BA8950966D937D938D939C936D
:1007B0005397A50194015F776D817E818F81988524
:1007C0000E94781787FF07C0E989FA89148A158A79
:1007D000168A178A0EC0A5019401C301B2010E94B6
:1007E0000B17A989BA8954966D937D938D939C9329
:1007F000579762960FB6F894DEBF0FBECDBFDF915C
:10080000CF91FF90EF90DF90CF90BF90AF909F90EF
:100810008F907F906F905F904F900895CF92DF926E
:10082000EF92FF92CF93DF93EC016C857D858E85EF
:100830009F850E94EF176B017C01688579858A8509
:100840009B850E94EF17DC01CB0145E0B6010E94B9
:10085000E20D6C817D818E819F810E94EF176B017B
:100860007C01688179818A819B810E94EF17DC017C
:10087000CB012CE337EE45E0B601DF91CF91FF903D
:10088000EF90DF90CF900C94600B4F925F926F923D
:100890007F928F929F92AF92BF92CF92DF92EF9210
:1008A000FF92CF93DF9300D000D000D0CDB7DEB75A
:1008B0009E838D83DC0150964D905D906D907C9071
:1008C000539754968D919D910D90BC91A02D898345
:1008D0009A83AB83BC83A3019201C301B2010E943E
:1008E000D5186B017C0129813A814B815C81CA0159
:1008F000B9010E94D5189B01AC01C701B6010E9445
:100900000C170E9448194B015C01ED81FE81C08CDF
:10091000D18CE28CF38CA70196010E94D018181696
:1009200024F5A5019401C301B2010E947D17A7011E
:1009300096010E94D518AD81BE8150966D937D932E
:100940008D939C935397A501940169817A818B8142
:100950009C810E947D17A70196010E94D518ED8108
:10096000FE81648B758B868B978B26960FB6F894D9
:10097000DEBF0FBECDBFDF91CF91FF90EF90DF9034
:10098000CF90BF90AF909F908F907F906F905F902F
:100990004F9008954F925F926F927F928F929F92A5
:1009A000AF92BF92CF92DF92EF92FF92CF93DF93FD
:1009B000CDB7DEB72E970FB6F894DEBF0FBECDBF12
:1009C0009E878D870E9428038D859E850E94450401
:1009D000AD85BE858D919D910D90BC91A02D898393
:1009E0009A83AB83BC83AD85BE8550968D919D91D6
:1009F0000D90BC91A02D89879A87AB87BC879C01FD
:100A0000AD0169817A818B819C810E940C176B01F9
:100A10007C01AD85BE8514968D919D910D90BC9104
:100A2000A02D8D839E83AF83B887ED85FE85848856
:100A30009588A688B788A5019401BC01CD010E94C4
:100A40000C172B013C0120E030E040EA50E40E940A
:100A50000C1720E030E040E453E40E94D018181650
:100A600084F020E030E040EA50E4C301B2010E948B
:100A70000B1720E030E040E452E40E94781787FF33
:100A80001DC020E030E040EC51E4C701B6010E94F7
:100A9000D01818169CF420E030E044E953E4C70174
:100AA000B6010E94781787FF09C0D501C401B0586C
:100AB000ED85FE85848B958BA68BB78BAD85BE852A
:100AC00054968D909D90AD90BC905797A501940140
:100AD0006D817E818F8198850E940C172B013C01CE
:100AE00020E030E040EA50E40E940C1720E030E0C3
:100AF00044E153E40E94D01818160CF48CC120E095
:100B000030E040EA50E4C301B2010E940B1720E03C
:100B100030E048EB52E40E94781787FF1DC020E0C8
:100B200030E040E050E4C701B6010E94D01818162A
:100B30009CF420E030E040EC51E4C701B6010E9493
:100B4000781787FF09C0D501C401B058ED85FE852F
:100B5000848B958BA68BB78BAD85BE8554968D9077
:100B60009D90AD90BC905797A50194016D817E81B9
:100B70008F8198850E940C172B013C0120E030E00A
:100B800040EA50E40E940C1720E030E044E153E4D6
:100B90000E94D018181684F020E030E040EA50E4BB
:100BA000C301B2010E940B1720E030E048EB52E491
:100BB0000E94781787FF13C020E030E044E953E437
:100BC000C701B6010E94D01818164CF4D501C40113
:100BD000B058ED85FE85848B958BA68BB78BAD8544
:100BE000BE8554962D913D914D915C9157976D81A5
:100BF0007E818F8198850E940C174B015C0120E05B
:100C000030E040EA50E4C701B6010E940C1720E032
:100C100030E044E953E40E94D01818160CF406C1E1
:100C200020E030E040EA50E4C701B6010E940B1713
:100C300020E030E040EC51E40E94781787FF22C0AA
:100C400020E030E040E452E4C501B4010E94D01835
:100C50001816C4F420E030E048EB52E4C501B401BA
:100C60000E94781787FF0EC0C984DA84EB84FC8465
:100C7000F7FAF094F7F8F094ED85FE85C08AD18AF2
:100C8000E28AF38AAD85BE855096CD90DD90ED90D9
:100C9000FC905397A701960169817A818B819C8191
:100CA0000E940C172B013C0120E030E040EA50E4A8
:100CB0000E940C1720E030E044E953E40E94D01871
:100CC000181684F020E030E040EA50E4C301B2019D
:100CD0000E940B1720E030E040EC51E40E947817AE
:100CE00087FF1EC020E030E044E153E4C501B401B9
:100CF0000E94D0181816A4F420E030E040E453E439
:100D0000C501B4010E94781787FF0AC0F7FAF09472
:100D1000F7F8F094ED85FE85C08AD18AE28AF38ADD
:100D2000AD85BE855096CD90DD90ED90FC905397AB
:100D3000A701960169817A818B819C810E940C17A1
:100D40002B013C0120E030E040EA50E40E940C1707
:100D500020E030E04FE953E40E94D018181684F0E8
:100D600020E030E040EA50E4C301B2010E940B17DA
:100D700020E030E040E050E40E94781787FF1EC07A
:100D800020E030E048EB52E4C501B4010E94D018E5
:100D90001816A4F420E030E044E153E4C501B401A6
:100DA0000E94781787FF0AC0F7FAF094F7F8F094DA
:100DB000ED85FE85C08AD18AE28AF38A29813A814B
:100DC0004B815C81AD85BE8550966D917D918D91F5
:100DD0009C9153970E940C17ED85FE85608371836B
:100DE0008283938384829582A682B7822E960FB6E1
:100DF000F894DEBF0FBECDBFDF91CF91FF90EF9093
:100E0000DF90CF90BF90AF909F908F907F906F902A
:100E10005F904F90089520E030E040E050E4C7013B
:100E2000B6010E94D01818168CF0C6CE20E030E033
:100E300040E452E4C501B4010E94D01818160CF425
:100E400009CFC984DA84EB84FC844CCF20E030E005
:100E500040EC51E4C701B6010E94781787FD73CEBC
:100E6000ABCECF92DF92EF92FF920F931F93CF936F
:100E7000DF93EC01680179019A01AB0168897989F6
:100E80008A899B890E940C17688B798B8A8B9B8B34
:100E9000A70196016C897D898E899F890E940C1714
:100EA0006C8B7D8B8E8B9F8BCE01DF91CF911F91B1
:100EB0000F91FF90EF90DF90CF900C9445044F92EC
:100EC0005F926F927F928F929F92AF92BF92CF92DA
:100ED000DF92EF92FF920F931F93CF93DF938C01DA
:100EE000EB01FC01C080D180E280F3808880998092
:100EF000AA80BB80A7019601C701B6010E94D51840
:100F00002B013C01A5019401C501B4010E94D51833
:100F10009B01AC01C301B2010E940C170E94481949
:100F20004B015C019B01AC01C701B6010E947D171A
:100F3000F8016083718382839383A50194016881A2
:100F400079818A819B810E947D17688379838A8356
:100F50009B83DF91CF911F910F91FF90EF90DF90D6
:100F6000CF90BF90AF909F908F907F906F905F9049
:100F70004F9008952F923F924F925F926F927F927F
:100F80008F929F92AF92BF92CF92DF92EF92FF9299
:100F90000F931F93CF93DF93CDB7DEB7E0970FB6D4
:100FA000F894DEBF0FBECDBF8C011B01DC01CD90DC
:100FB000DD90ED90FC90DB018D919D910D90BC91A9
:100FC000A02D898B9A8BAB8BBC8B9C01AD01C7018B
:100FD000B6010E940B172B013C01D80114968D918C
:100FE0009D910D90BC91A02D8D8B9E8BAF8BB88F5A
:100FF000D10114968D919D910D90BC91A02D898F5A
:101000009A8FAB8FBC8F9C01AD016D897E898F89D2
:10101000988D0E940B174B015C01A3019201C30143
:10102000B2010E94D5182B013C01A5019401C50114
:10103000B4010E94D5189B01AC01C301B2010E940A
:101040000C1720E030E044E453E40E94D018181656
:101050000CF48FC1A701960169897A898B899C89D3
:101060000E940B176B017C016D877E878F87988BA1
:101070002D893E894F89588D698D7A8D8B8D9C8DF8
:101080000E940B1769877A878B879C87DC01CB01CD
:10109000B0588D839E83AF83B887C982DA82EB8292
:1010A000FC82BE01675F7F4FCE010D960E945F07F5
:1010B000BE016F5F7F4FCE0105960E945F07F8016A
:1010C00080889188A288B3888D819E81AF81B88500
:1010D000898B9A8BAB8BBC8BC488D588E688F788C4
:1010E00089819A81AB81BC818D8B9E8BAF8BB88FB0
:1010F00029893A894B895C89C501B4010E94D518B8
:101100002B013C012D893E894F89588DC701B601BD
:101110000E94D5189B01AC01C301B2010E940C17BB
:1011200069A37AA38BA39CA38D859E85AF85B8897F
:10113000898F9A8FAB8FBC8F89859A85AB85BC854B
:101140008D8F9E8FAF8FB8A3298D3A8D4B8D5C8D7F
:10115000C501B4010E94D5184B015C012D8D3E8D57
:101160004F8D58A1C701B6010E94D5189B01AC0153
:10117000C501B4010E940C176DA37EA38FA398A78D
:10118000D10150968D909D90AD90BC905397549600
:10119000CD90DD90ED90FC905797A5019401698961
:1011A0007A898B899C890E94D5182B013C01A70163
:1011B00096016D897E898F89988D0E94D5189B0133
:1011C000AC01C301B2010E940C1769A77AA78BA7D3
:1011D0009CA7A5019401698D7A8D8B8D9C8D0E94B1
:1011E000D5184B015C01A70196016D8D7E8D8F8D09
:1011F00098A10E94D5189B01AC01C501B4010E94C1
:101200000C174B015C01F10140A051A062A073A03A
:10121000D8019096CD90DD90ED90FC9093979B0136
:10122000AC01698D7A8D8B8D9C8D0E94D518A301A0
:1012300092010E94D518A70196010E947D176DA703
:101240007EA78FA798AB29A13AA14BA15CA1698980
:101250007A898B899C890E94D5189B01AC016DA568
:101260007EA58FA598A90E940C17F801608B718B41
:10127000828B938BA50194016D8D7E8D8F8D98A1AE
:101280000E94D518A30192010E94D518A7019601CA
:101290000E947D174B015C0129A13AA14BA15CA1E1
:1012A0006D897E898F89988D0E94D5189B01AC012C
:1012B000C501B4010E940C17D80154966D937D931B
:1012C0008D939C9357972DA13EA14FA158A5698D51
:1012D0007A8D8B8D9C8D0E94D518A70196010E9456
:1012E000D518A30192010E947D174B015C0129A52D
:1012F0003AA54BA55CA569897A898B899C890E944E
:10130000D5189B01AC01C501B4010E940C17F10175
:10131000608B718B828B938B2DA13EA14FA158A521
:101320006D8D7E8D8F8D98A10E94D518A701960195
:101330000E94D518A30192010E947D176B017C01C8
:1013400029A53AA54BA55CA56D897E898F89988DC5
:101350000E94D5189B01AC01C701B6010E940C1771
:10136000D10154966D937D938D939C93579781E013
:1013700001C080E0E0960FB6F894DEBF0FBECDBF8F
:10138000DF91CF911F910F91FF90EF90DF90CF9061
:10139000BF90AF909F908F907F906F905F904F9095
:1013A0003F902F900895FC0180819181A281B381AB
:1013B00080879187A287B38784819581A681B78131
:1013C00084879587A687B7870895FC0180859185D6
:1013D000A285B38580839183A283B3838485958519
:1013E000A685B78584839583A683B78308958F9256
:1013F0009F92AF92BF92CF92DF92EF92FF92CF93E4
:10140000DF93EC017B01FB0120813181428153811B
:10141000688179818A819B810E940B174B015C0155
:10142000F70124813581468157816C817D818E81D0
:101430009F810E940B176B017C01A5019401C501DE
:10144000B4010E94D5184B015C01A7019601C701A8
:10145000B6010E94D5189B01AC01C501B4010E94E0
:101460000C17DF91CF91FF90EF90DF90CF90BF905E
:10147000AF909F908F90089510924A0190934901E8
:10148000809348011092470181E08093460184B522
:10149000836084BD85B5856085BDEEE6F0E0808122
:1014A00081608083089581E08093460108951092C1
:1014B0004A011092460108955F9A80914A01853051
:1014C000E0F35F9880914A01855080934A01089526
:1014D000EF920F931F93409148015091490182E090
:1014E000E82E05E01DE42CE337EE65E070E080EACD
:1014F00090E00E94340C1F910F91EF90089580911D
:101500004601811119C080914A018F5F80934A0181
:10151000809147018F5F80934701809147018D3310
:1015200059F48091480190914901019790934901A4
:10153000809348011092470108958091480190914D
:10154000490108952F923F924F925F926F927F923E
:101550008F929F92AF92BF92CF92DF92EF92FF92C3
:101560000F931F93CF93DF9300D000D000D0CDB75F
:10157000DEB75C017E836D837A01690142305105DB
:1015800038F02A01440C551C91E0491A510802C058
:10159000412C512C82E0C816D10438F01601220CDF
:1015A000331C91E0291A310802C0212C312C8D8086
:1015B0009E808C0C9D1C35016E187F0840E050E029
:1015C000B401C3010E943510C30101969A83898337
:1015D0009801A201B4010E945610C7018A0D9B1DFB
:1015E0009C838B8340E050E0B4010E9435108D80D5
:1015F0009E808C189D0840E050E0B401C3010E9419
:1016000035109801A201B40189819A810E94561077
:1016100040E050E0B4018B819C810E9435108D80A8
:101620009E808E0C9F1C35016C187D0840E050E0B8
:10163000B401C3010E94351023019FEF491A590AD2
:101640009801A101B401C2010E945610CA0CDB1C12
:1016500040E050E0B401C6010E9435108D819E81AA
:101660008E199F099A83898340E050E0BC01C30131
:101670000E9435109801A10169817A81C2010E94FE
:10168000561040E050E069817A81C60126960FB677
:10169000F894DEBF0FBECDBFDF91CF911F910F91A8
:1016A000FF90EF90DF90CF90BF90AF909F908F9082
:1016B0007F906F905F904F903F902F900C943510DB
:1016C0004F925F926F927F928F929F92AF92BF9252
:1016D000CF92DF92EF92FF920F931F93CF93DF93FE
:1016E0005C014B013901C42FD0E0CE01880F991F56
:1016F00023E030E07901E81AF90A83019E0140E015
:1017000050E0C5010E94A20A44E0442E512CC12C95
:10171000D12C8FEFC81AD80A1E141F0474F4219715
:10172000C6018C1B9D0B880F991F880F991FE80E0F
:10173000F91E8AE0E80EF11C05C0E40CF51C86E0F9
:10174000E80EF11C83019E01A601B401C5010E94AF
:10175000A20A84E0480E511CCC15DD05D4F6DF91B9
:10176000CF911F910F91FF90EF90DF90CF90BF909E
:10177000AF909F908F907F906F905F904F90089563
:101780002F923F924F925F926F927F928F929F9291
:10179000AF92BF92CF92DF92EF92FF920F931F937F
:1017A000CF93DF93CDB7DEB72A970FB6F894DEBF9D
:1017B0000FBECDBF5C012B01CA0149013801FE2CCF
:1017C0009E012F5F3F4F1901F9012AE030E0AF0180
:1017D00042195309009739F0B9010E949D19805DA3
:1017E0008193CB01F4CF4115510521F480E3898326
:1017F00041E050E0E6E0FE9EC00111249A8789870F
:101800006101C40ED51EC214D304A9F0EF2C8301CC
:10181000940140E2B201C5010E9420119401F60139
:1018200042916F01B201C5010E94201129853A85BC
:10183000A20EB31EE8CF2A960FB6F894DEBF0FBEF5
:10184000CDBFDF91CF911F910F91FF90EF90DF906F
:10185000CF90BF90AF909F908F907F906F905F9050
:101860004F903F902F9008952F923F924F925F920A
:101870006F927F928F929F92AF92BF92CF92DF92A0
:10188000EF92FF920F931F93CF93DF9300D000D07E
:10189000CDB7DEB77C836B833A0169015801FE2C1A
:1018A0004C012CE0E29E801891081124960140E240
:1018B000C4010E94201188E5681682E0780690F045
:1018C000C30168E572E00E949D19CB016AE070E0F7
:1018D0000E949D1940E3480F96016B817C81C401F1
:1018E0000E94201126E0F29E10011124820C931C0C
:1018F000EF2C8501960140E26B817C81C4010E943E
:101900002011C3016CE370E00E949D199A838983C2
:101910008AE0482E512CCB01B2010E949D1940E370
:10192000480F96016B817C81C4010E942011820CBA
:10193000931C96014AE36B817C81C4010E942011B3
:10194000820C931C960140E26B817C81C4010E9451
:10195000201189819A81B2010E949D1940E3460FAE
:1019600096016B817C81C4010E942011280C391CD6
:10197000960140E26B817C81C1010E942011C3016C
:10198000B2010E949D1940E3480F96016B817C8152
:10199000C1010E9420110F900F900F900F90DF91C6
:1019A000CF911F910F91FF90EF90DF90CF90BF905C
:1019B000AF909F908F907F906F905F904F903F90EF
:1019C0002F900895E0EAF0E0E81BF90BF7FF03C061
:1019D000F195E195F10928E730E0261B370B37FF39
:1019E00003C0319521953109229FA001239F500DFD
:1019F000500D1124455A5540EE9FD001EF9FB00D78
:101A0000B00D11244A0F5B1F4F33514008F441C001
:101A1000AF01465851094530510518F42B343105B2
:101A2000C4F1A901465451094530510520F4EB3861
:101A3000F1053CF42EC0E330F1051CF42B343105E4
:101A400044F1AF01495851094531510530F4A9011C
:101A50004D51510943305105E0F0AF014D59510945
:101A60004330510518F4203231059CF06854710957
:101A7000860F971F6CE370E00E949D194E9760F4EB
:101A8000E838F1054CF42834310534F485EE93E060
:101A900008958CE397EE089585E09DE408950F93F3
:101AA0001F93CF93DF932FEE30E04FE351E060E0E0
:101AB00070E080E090E00E948A0E00E010E0C0E05C
:101AC000D0E0B801CE010E94E20C0E94F20F2196F4
:101AD000C03481E0D807A9F70F5F1F4F003F110501
:101AE00071F7DF91CF911F910F910895EF92FF92BF
:101AF0000F931F93CF93DF93EC017B018A01415039
:101B00005109480F591F9B010E948A0E0C0F1D1F7F
:101B1000C017D10741F0B701CE010E94E20C0E942C
:101B2000F20F2196F5CFDF91CF911F910F91FF908A
:101B3000EF9008958F929F92AF92BF92CF92DF92D3
:101B4000EF92FF920F931F93CF93DF938C01EB01E2
:101B50006A0159017A01EE0CFF1C8FEFE81AF80AAE
:101B60004801841A950A620F731FA701C4010E94DD
:101B7000760DBE016A197B09A701C4010E94760D8A
:101B80007501EE0CFF1C8FEFE81AF80A0A191B0901
:101B9000B6016C0F7D1FA701C8010E94760DBE0122
:101BA0006C197D09A701C801DF91CF911F910F9199
:101BB000FF90EF90DF90CF90BF90AF909F908F906D
:101BC0000C94760D8F929F92AF92BF92CF92DF923C
:101BD000EF92FF920F931F93CF93DF935C014B0122
:101BE000C42FD0E0CE01880F991F03E010E0081B3E
:101BF000190B9E0140E050E0C5010E949A0D44E09F
:101C0000C42ED12CE12CF12C8FEFE81AF80A101613
:101C100011066CF42197C7018C1B9D0B880F991F2F
:101C2000880F991F080F191F065F1F4F04C00C0D66
:101C30001D1D0A5F1F4F9E01A701B401C5010E942F
:101C40009A0D84E0C80ED11CCE15DF05ECF6DF91AD
:101C5000CF911F910F91FF90EF90DF90CF90BF90A9
:101C6000AF909F908F900895EF920F931F93CF9313
:101C7000C62F482F50E082E0E82E05E01DE42FE15A
:101C800030E065E070E080E590E00E94C00B4C2FF2
:101C900050E020E038EF65E070E080EF90E00E94D7
:101CA000C00BCF911F910F91EF9008958FEF84B9E2
:101CB000299A209A089584B18C6384B980E58CBDFB
:101CC0008DB581608DBD2C9A0895209100013091D1
:101CD0000101232B29F0109201011092000103C091
:101CE0000DB407FEFDCF8EBD089595B19E7E95B9CA
:101CF0009AE19A95F1F700C00E94650E2C9A08951A
:101D0000289A95E09A95F1F700002C980E94650EAC
:101D10002C9A0895CF92DF92EF92FF920F931F9328
:101D2000CF93DF93D82EC92E162F072FF42EE52E32
:101D3000E9018AE20E94750E8C2D0E94800E8D2D85
:101D40000E94800E8E2D0E94800E8F2D0E94800E8C
:101D50008BE20E94750E802F0E94800E812F0E94C0
:101D6000800E8D2F0E94800E8C2F0E94800E8CE2A0
:101D7000DF91CF911F910F91FF90EF90DF90CF9067
:101D80000C94750E299A2FEF83EC99E02150804036
:101D90009040E1F700C0000029982FEF83EC99E014
:101DA000215080409040E1F700C00000299A2FEFB9
:101DB00083EC99E0215080409040E1F700C00000A2
:101DC00008950E94560E0E945B0E0E94C20E81E092
:101DD0000E94750E2FEF83ED90E3215080409040DC
:101DE000E1F700C000008BEC0E94750E89E30E94B1
:101DF000800E8CE20E94800E80E00E94800E84E3C0
:101E00000E94800E82E00E94800E8FEC0E94750E70
:101E100080E00E94800E81EC0E94800E80E30E9490
:101E2000800E88EE0E94750E85E80E94800E80E08C
:101E30000E94800E88E70E94800E8AEE0E94750E36
:101E400080E00E94800E80E00E94800E8DEE0E9455
:101E5000750E84E60E94800E83E00E94800E82E16F
:101E60000E94800E81E80E94800E87EF0E94750E0E
:101E700080E20E94800E80EC0E94750E83E20E9438
:101E8000800E81EC0E94750E80E10E94800E85EC30
:101E90000E94750E8EE30E94800E88E20E94800EE2
:101EA00087EC0E94750E86E80E94800E86E30E94F1
:101EB000750E88E40E94800E8AE30E94750E85E507
:101EC0000E94800E81EB0E94750E80E00E94800EC1
:101ED00088E10E94800E86EB0E94750E88E00E94C9
:101EE000800E82E80E94800E87E20E94800E82EFC0
:101EF0000E94750E80E00E94800E86E20E94750EA0
:101F000081E00E94800E80EE0E94750E8FE00E949C
:101F1000800E81E30E94800E8BE20E94800E8CE096
:101F20000E94800E8EE00E94800E88E00E94800E4B
:101F30008EE40E94800E81EF0E94800E87E30E9453
:101F4000800E87E00E94800E80E10E94800E83E078
:101F50000E94800E8EE00E94800E89E00E94800E1A
:101F600080E00E94800E81EE0E94750E80E00E944B
:101F7000800E8EE00E94800E84E10E94800E83E03D
:101F80000E94800E81E10E94800E87E00E94800EF8
:101F900081E30E94800E81EC0E94800E88E40E9402
:101FA000800E88E00E94800E8FE00E94800E8CE000
:101FB0000E94800E81E30E94800E86E30E94800EC4
:101FC0008FE00E94800E81E10E94750E2FEF8BED55
:101FD00095E0215080409040E1F700C0000089E288
:101FE0000C94750ECF93C82F892F0E94800E8C2FD2
:101FF000CF910C94800EEF92FF920F931F93CF938B
:10200000DF937C0120910201309103014091040192
:1020100050910501215031094150510960E070E0B3
:1020200080E090E00E948A0E00E010E080910401C0
:10203000909105010817190788F4C0E0D0E080915D
:10204000020190910301C817D90728F4C7010E9423
:10205000F20F2196F4CF0F5F1F4FE8CFDF91CF91A2
:102060001F910F91FF90EF900895CF93DF932091F0
:1020700004013091050182179307A8F42091020111
:10208000309103016217730770F4EA019B012F5F1F
:102090003F4FAC014F5F5F4F0E948A0ECE01DF9130
:1020A000CF910C94F20FDF91CF9108950F931F936E
:1020B000CF93DF93EA01890120910401309105015A
:1020C0008217930740F520910201309103016217B6
:1020D000730708F540910401509105019E012150BC
:1020E0003109280F391F2417350730F0C09104013A
:1020F000D0910501C81BD90BAC01415051094C0FBF
:102100005D1F9B010E948A0E209729F0C8010E9442
:10211000F20F2197F9CFDF91CF911F910F91089581
:10212000CF92DF92EF92FF920F931F93CF93DF93A3
:102130007A01E9012091040130910501821793078A
:1021400008F047C020910201309103016217730724
:1021500008F03FC0409104015091050197012150C2
:102160003109280F391F2417350730F0E09004019A
:10217000F0900501E81AF90A40910201509103011B
:102180009E0121503109260F371F2417350730F0E3
:10219000C0910201D0910301C61BD70B9B012150B6
:1021A00031092C0F3D1FAC01415051094E0D5F1DEF
:1021B0000E948A0E209769F06701C114D10439F09A
:1021C000C8010E94F20F81E0C81AD108F6CF21970A
:1021D000F1CFDF91CF911F910F91FF90EF90DF90A2
:1021E000CF900895CF93C82F86E30E94750E8C2F51
:1021F0008370823041F0833091F0813011F088E4B7
:1022000003C088E20DC088E80E94800E80EF90E055
:10221000909305018093040180E491E00BC088EE67
:102220000E94800E80E491E0909305018093040168
:1022300080EF90E09093030180930201CF91089585
:102240002F923F924F925F926F927F928F929F92C6
:10225000AF92BF92CF92DF92EF92FF920F931F93B4
:10226000CF93DF93CDB7DEB72B970FB6F894DEBFD1
:102270000FBECDBFE0910401F09105018E179F07BD
:1022800008F081C0E0910201F09103016E177F0711
:1022900008F079C0FC0156E0E59EE00DF11D112427
:1022A0001E161F060CF06FC02E2C312CFB0158E0BF
:1022B000E59EE00DF11D11241E161F060CF063C0F3
:1022C000ED8238013C832B837A83698325E0429F2A
:1022D000A00111249B878A876C01512C9A01281B2D
:1022E000390B3F832E83CB010896998788874E2C24
:1022F000E32C95E0591641F0EE81FF81EC0DFD1DB8
:10230000E458FF4FF49001C0F12C89809A80540169
:10231000F0FE09C02D81213019F44B815C810CC085
:102320000B811C810FC08B819C818615970599F0CC
:102330009D81913031F4A301B501C6010E94351091
:102340000AC08301242D3E2D442D5E2DB4018A85C3
:102350009B850E949010F6942FEFA21AB20A820C6D
:10236000931C88859985A816B90691F653949FEF1A
:10237000C91AD90A2A853B85220D331D3B872A8736
:1023800036E05312B6CF2B960FB6F894DEBF0FBED1
:10239000CDBFDF91CF911F910F91FF90EF90DF9014
:1023A000CF90BF90AF909F908F907F906F905F90F5
:1023B0004F903F902F900895A3E5B1E08FEF8C935D
:1023C000EBE4F1E0108211968C9311971182129632
:1023D0008C931297128213968C931382E0EBF0E0A9
:1023E000808183608083E1EBF0E080818560808381
:1023F000E0E7F0E0808181608083089580E090E0F4
:1024000041E0FC01ED5AFE4F2081220F208326B1CE
:1024100030E0082E02C0359527950A94E2F720FF98
:1024200003C02081216020832081211105C0FC018F
:10243000E55BFE4F408307C020812F3F21F4FC0164
:10244000E55BFE4F1082019684309105D1F6089528
:10245000E82FF0E0E55BFE4F80810895AF92BF92D8
:10246000CF92DF92EF92FF920F931F93CF93DF9360
:10247000FC0140815181FB012081318136952795F6
:102480003695279556954795569547954038510569
:1024900010F04FE750E02038310510F02FE730E022
:1024A000449FF001459FF00DF00D1124229FD001B3
:1024B000239FB00DB00D1124EA0FFB1FE230FF4344
:1024C00008F46AC0EFE7EE2EF12CA0E4B0E057016B
:1024D000EFEFAE1ABE0AAE15BF05B8F5F501EA0F6B
:1024E000FB1FF695E795E49F8001E59F100DF49F93
:1024F000100D1124000F012F001F110B1195E29FE9
:10250000E001E39FD00DF29FD00D1124CC0FCD2F11
:10251000CC1FDD0BD195009F6001019FD00CD00C2A
:102520001124CC9F8001CD9F100D100D1124C00EE1
:10253000D11EC2E0CC16CFE3DC0628F07F01C1E05B
:10254000EC1AF108C4CFDF01C6CFA49FF001A59F0C
:10255000F00DB49FF00D1124AF01440F452F441F1F
:10256000550B5195440F551F440F551FFC015183C6
:102570004083A29FC001A39F900DB29F900D112494
:10258000880F892F881F990B9195880F991F880FA5
:10259000991FFB0191838083DF91CF911F910F9150
:1025A000FF90EF90DF90CF90BF90AF900895549A36
:1025B0005C9A579A22982A9A3898409A3998419A60
:1025C0003A98429A3B98439A08951F920F920FB6F9
:1025D0000F9211242F933F934F935F936F937F93A9
:1025E0008F939F93AF93BF93EF93FF930E947F0AC4
:1025F000FF91EF91BF91AF919F918F917F916F91DB
:102600005F914F913F912F910F900FBE0F901F90B0
:1026100018951F920F920FB60F9211242F933F938C
:102620004F935F936F937F938F939F93AF93BF93DA
:10263000EF93FF930E94FE11FF91EF91BF91AF9135
:102640009F918F917F916F915F914F913F912F91CA
:102650000F900FBE0F901F9018950E944F0D60E0D5
:1026600086E891E00E94121561E08BE591E00E94FE
:10267000121581EB91E00C94F6026F927F928F928B
:102680009F92AF92BF92CF92DF92EF920F931F93E0
:10269000CF93DF93CDB7DEB7A5970FB6F894DEBF23
:1026A0000FBECDBF80E090E00E94FB0F85E2E6E028
:1026B000F1E0DE01119601900D928A95E1F7CE01CD
:1026C00001966C013E0196E2690E711C20E5822E96
:1026D000912C98E2A92EB12CC614D704B9F0F601BA
:1026E00041916F014A3021F4FEE18F0E911CF1CF30
:1026F00083E0E82E00E010E02CE337EEB401C501E2
:102700000E94201182E1A80EB11CE6CF82E00E9457
:1027100028128823D9F383E00E9428128823B1F37A
:10272000A5960FB6F894DEBF0FBECDBFDF91CF9157
:102730001F910F91EF90DF90CF90BF90AF909F903F
:102740008F907F906F9008958F929F92AF92BF92DB
:10275000CF92DF92EF920F931F93CF93DF93CDB77A
:10276000DEB76A970FB6F894DEBF0FBECDBFC82E96
:10277000D62E8BE0EBE2F1E0DE01119601900D9296
:102780008A95E1F78AE0E6E3F1E0DE011C9601902C
:102790000D928A95E1F785E0E0E4F1E0DE015696DE
:1027A00001900D928A95E1F70E94530A0E944F0D05
:1027B0006D2D8C2D0E94340EFE01DC1438F0CD14EA
:1027C00050F43C96812C38EF932E0AC031962FE1BD
:1027D000822E912C05C076969FEE892E9BE7992E2E
:1027E000DF010D900020E9F71197AE1BBF0B86E0CB
:1027F0008A9F90018B9F300D112480EA90E05C014C
:10280000A21AB30A6F01F60141916F01442371F0DE
:1028100082E0E82E05E01DE4940164E170E0C5016A
:102820000E9420118CE0A80EB11CEDCF82E00E9426
:1028300028128823D9F383E00E9428128823B1F359
:102840006A960FB6F894DEBF0FBECDBFDF91CF9171
:102850001F910F91EF90DF90CF90BF90AF909F901E
:102860008F900895CF92DF92EF92FF920F931F9374
:10287000CF93DF930E943D1388E790E00E943C0ACB
:102880000E942D130E94570AD0E0C0E00E949D0ACA
:10289000181619060CF0ABC00E945C0A0E94680A68
:1028A0006D2F8C2F0E94340E81EB91E00E94D30992
:1028B00086E891E00E94D3098BE591E00E94D3095C
:1028C00086E891E00E9407168BE591E00E940716CA
:1028D00081EB91E00E94CA041AE0115008F454C040
:1028E0006BE571E081EB91E00E94BA07882391F0DB
:1028F00081EB91E00E94E5098BE591E00E94E509FA
:1029000081EB91E00E94CA048BE591E00E94CA0429
:1029100001E001C000E066E871E081EB91E00E9417
:10292000BA07882389F081EB91E00E94E50986E8E7
:1029300091E00E94E50981EB91E00E94CA0486E8DB
:1029400091E00E94CA0401E066E871E08BE591E045
:102950000E94BA07882389F08BE591E00E94E5097F
:1029600086E891E00E94E5098BE591E00E94CA04A7
:1029700086E891E00E94CA04B0CF0111AECF1111D8
:1029800003C00E942D1382CFC090B101D090B2013C
:10299000E090B301F090B40120E030E048E951E468
:1029A000C701B6010E94781787FF02C0DF5F0BC026
:1029B00020E030E846E953E4C701B6010E94D01890
:1029C000181644F4CF5F0E94530A0E942D130E94F0
:1029D000570A5CCF86E891E00E94B9168BE591E03A
:1029E0000E94B91681EB91E00E940E044FCF6D2F2B
:1029F0008C2FDF91CF911F910F91FF90EF90DF907F
:102A0000CF900C94A4130E94D7120E94E10E81E093
:102A10000E94F2100E94DB020E94DC1178940E9456
:102A20003214FDCF1F93CF93DF93EC01162F0E943A
:102A3000F60280E090E0A0EFB2E48C839D83AE8349
:102A4000BF8319A7111111C080E090E0A0EAB2E4A1
:102A500088839983AA83BB838FE190E098A78FA393
:102A600083E08CA382E08DA311C0113081F480E05B
:102A700090E0A0E7B3E488839983AA83BB8380E0D6
:102A800098EF98A78FA31CA31DA283E08EA3888133
:102A90009981AA81BB8188879987AA87BB8780E0B3
:102AA00090E0A0EFB2E48C879D87AE87BF87188A3D
:102AB000198A1A8A1B8A1C8A1D8A1E8A1F8A80E02C
:102AC00090E0A0EAB0E4888F998FAA8FBB8F8AE943
:102AD00099E9A9E9BEE38C8F9D8FAE8FBF8F80E00F
:102AE00090E0A0E0B0E488A399A3AAA3BBA31AA690
:102AF000DF91CF911F910895CF93DF93EC018AA5C9
:102B00008F3F39F48EA10E94281281110EC01AA69F
:102B10000CC0811108C08EA10E942812882329F0C0
:102B200081E08AA702C0813069F3DF91CF910895D7
:102B3000CF92DF92EF92FF920F931F93CF93DF9389
:102B4000CDB7DEB728970FB6F894DEBF0FBECDBF66
:102B50007C0101EB11E0FC01208131814281538134
:102B6000F80160817181828193810E940B176D83CE
:102B70007E838F839887F701248135814681578131
:102B8000F80164817581868197810E940B176983A2
:102B90007A838B839C83BE016F5F7F4FCE01059646
:102BA0000E945F0720E030E040E751E46D817E81C4
:102BB0008F8198850E94D5186B017C016D837E837F
:102BC0008F83988720E030E040E751E469817A8183
:102BD0008B819C810E94D5188B019C0169837A832B
:102BE0008B839C83B701A60181EB91E00E943107A2
:102BF00028960FB6F894DEBF0FBECDBFDF91CF9100
:102C00001F910F91FF90EF90DF90CF9008958F92DA
:102C10009F92AF92BF92EF92FF920F931F93CF9329
:102C2000DF9300D000D0CDB7DEB77C010E947C15C9
:102C3000F70182A5813099F4B70181EB91E00E9400
:102C4000F70920E030E048EC53E40E94781787FF52
:102C500006C0C7010E9498158FEFF70182A7F70100
:102C600080819181A281B38180879187A287B38778
:102C700084819581A681B78184879587A687B78748
:102C800084A10E94E2029C838B83F70185A10E94AC
:102C9000E2022FEF33E05901A81AB90A0B811C8117
:102CA000A114F2E0BF0638F02FEF31E0A901481B74
:102CB000590BCA0104C080E092E08A199B099A83EB
:102CC0008983011552E0150718F0C801925004C01D
:102CD00080E092E0801B910B9C838B83BE016D5F33
:102CE0007F4FCE0101960E942E1269817A81A11434
:102CF00082E0B80630F480E090E00E941E18905800
:102D000004C080E090E00E941E1820E030E046E918
:102D100053E40E947D174B015C016B817C8180E054
:102D200090E00115124020F40E941E18905802C035
:102D30000E941E1820E030E046E953E40E947D170F
:102D40008B019C01B501A401C7010E943107C70195
:102D50000E94CA040F900F900F900F90DF91CF91B7
:102D60001F910F91FF90EF90BF90AF909F908F9029
:102D70000895CF92DF92EF92FF920F931F93CF931C
:102D8000DF93EC016C857D858E859F850E94EF1712
:102D90006B017C01688579858A859B850E94EF1788
:102DA000DC01CB0148E0B6010E94E20D8AA581302A
:102DB00099F46C817D818E819F810E94EF176B0158
:102DC0007C01688179818A819B810E94EF17DC01F7
:102DD000CB0120EE3FEF13C00FA118A56C817D81C0
:102DE0008E819F810E94EF176B017C016881798140
:102DF0008A819B810E94EF17DC01CB01980148E09A
:102E0000B601DF91CF911F910F91FF90EF90DF906E
:102E1000CF900C94600B5058BB27AA270E94231711
:102E20000C9496180E94881838F00E948F1820F091
:102E300039F49F3F19F426F40C9485180EF4E095AC
:102E4000E7FB0C947F18E92F0E94A71858F3BA17D4
:102E5000620773078407950720F079F4A6F50C94B0
:102E6000C9180EF4E0950B2EBA2FA02D0B01B90155
:102E700090010C01CA01A0011124FF27591B99F0F0
:102E8000593F50F4503E68F11A16F040A22F232FFC
:102E9000342F4427585FF3CF469537952795A7954C
:102EA000F0405395C9F77EF41F16BA0B620B730BF3
:102EB000840BBAF09150A1F0FF0FBB1F661F771F64
:102EC000881FC2F70EC0BA0F621F731F841F48F419
:102ED000879577956795B795F7959E3F08F0B0CFA2
:102EE0009395880F08F09927EE0F97958795089589
:102EF0000E945B1808F481E008950E9491170C94D9
:102F000096180E948F1858F00E94881840F029F4F3
:102F10005F3F29F00C947F1851110C94CA180C943F
:102F200085180E94A71868F39923B1F3552391F3EC
:102F3000951B550BBB27AA2762177307840738F028
:102F40009F5F5F4F220F331F441FAA1FA9F335D085
:102F50000E2E3AF0E0E832D091505040E695001C39
:102F6000CAF72BD0FE2F29D0660F771F881FBB1FF3
:102F7000261737074807AB07B0E809F0BB0B802DD1
:102F8000BF01FF2793585F4F3AF09E3F510578F0FD
:102F90000C947F180C94CA185F3FE4F3983ED4F366
:102FA000869577956795B795F7959F5FC9F7880FD1
:102FB000911D9695879597F90895E1E0660F771F23
:102FC000881FBB1F621773078407BA0720F0621BB4
:102FD000730B840BBA0BEE1F88F7E09508950E94DF
:102FE000AF1888F09F5798F0B92F9927B751B0F0D4
:102FF000E1F0660F771F881F991F1AF0BA95C9F77D
:1030000014C0B13091F00E94C918B1E008950C9439
:10301000C918672F782F8827B85F39F0B93FCCF3EC
:10302000869577956795B395D9F73EF490958095F9
:10303000709561957F4F8F4F9F4F0895E89409C019
:1030400097FB3EF490958095709561957F4F8F4FDB
:103050009F4F9923A9F0F92F96E9BB279395F695F1
:10306000879577956795B795F111F8CFFAF4BB0F6F
:1030700011F460FF1BC06F5F7F4F8F4F9F4F16C0D3
:10308000882311F096E911C0772321F09EE8872F5D
:10309000762F05C0662371F096E8862F70E060E019
:1030A0002AF09A95660F771F881FDAF7880F969592
:1030B000879597F90895990F0008550FAA0BE0E836
:1030C000FEEF16161706E807F907C0F012161306EA
:1030D000E407F50798F0621B730B840B950B39F42A
:1030E0000A2661F0232B242B252B21F408950A2690
:1030F00009F4A140A6958FEF811D811D089597F9D0
:103100009F6780E870E060E008959FEF80EC08958D
:1031100000240A94161617061806090608950024B6
:103120000A9412161306140605060895092E039430
:10313000000C11F4882352F0BB0F40F4BF2B11F4A4
:1031400060FF04C06F5F7F4F8F4F9F4F089557FD03
:103150009058440F551F59F05F3F71F04795880F05
:1031600097FB991F61F09F3F79F08795089512169C
:1031700013061406551FF2CF4695F1DF08C0161648
:1031800017061806991FF1CF8695710561050894F9
:103190000895E894BB2766277727CB0197F9089510
:1031A0000E945B1808F48FEF08950E94E8180C94B1
:1031B00096180E94881838F00E948F1820F09523E6
:1031C00011F00C947F180C94851811240C94CA18D3
:1031D0000E94A71870F3959FC1F3950F50E0551FFB
:1031E000629FF001729FBB27F00DB11D639FAA275C
:1031F000F00DB11DAA1F649F6627B00DA11D661FAB
:10320000829F2227B00DA11D621F739FB00DA11DCB
:10321000621F839FA00D611D221F749F3327A00D85
:10322000611D231F849F600D211D822F762F6A2F21
:1032300011249F5750409AF0F1F088234AF0EE0F86
:10324000FF1FBB1F661F771F881F91505040A9F7B3
:103250009E3F510580F00C947F180C94CA185F3F74
:10326000E4F3983ED4F3869577956795B795F795EF
:10327000E7959F5FC1F7FE2B880F911D9695879567
:1032800097F9089519F416F40C9485180C9488197C
:103290000E94AF18B8F39923C9F3B6F39F57550BA3
:1032A00087FF0E9496190024A0E640EA900180580A
:1032B0005695979528F4805C660F771F881F20F03D
:1032C00026173707480730F4621B730B840B20293D
:1032D00031294A2BA69517940794202531254A2792
:1032E00058F7660F771F881F20F026173707480703
:1032F00030F4620B730B840B200D311D411DA09522
:1033000081F7B901842F9158880F96958795089574
:103310009F3F31F0915020F4879577956795B79549
:10332000880F911D9695879597F908959150504073
:10333000660F771F881FD2F70895AA1BBB1B51E1A8
:1033400007C0AA1FBB1FA617B70710F0A61BB70B15
:10335000881F991F5A95A9F780959095BC01CD01BA
:063360000895F894FFCF70
:103366000100F0004001507265737320626F74684B
:103376000A627574746F6E7320746F0A7374617267
:1033860074207468652067616D6500426C75652000
:1033960077696E7321005265642077696E73210028
:0633A600546965210000DE
:00000001FF
